:1000000012C04BC020C01FC01EC01DC01CC01BC0E2
:100010001AC019C018C017C016C015C014C013C02C
:1000200012C011C010C011241FBECFE5D4E0DEBF46
:10003000CDBF20E0A0E6B0E001C01D92A136B2071E
:10004000E1F702D03BC0DCCF8FE087BB789480E43F
:100050008BBF83E085BF48E034E021E092E08091EF
:100060006000823081F028F4882349F0813049F023
:10007000F8CF843061F048F0853059F0F2CF18BAEB
:10008000EECF28BBECCF98BBEACF38BBE8CF48BB5C
:10009000E6CF18BA10926000E2CF1F920F920FB60F
:1000A0000F9211248F93809160008F5F8093600086
:1000B0008F910F900FBE0F901F901895F894FFCF5F
:00000001FF
